{
  "_format": "hh-sol-artifact-1",
  "contractName": "ICO",
  "sourceName": "contracts/ICO.sol",
  "abi": [
    {
      "inputs": [
        {
          "internalType": "string",
          "name": "_name",
          "type": "string"
        },
        {
          "internalType": "string",
          "name": "_symbol",
          "type": "string"
        },
        {
          "internalType": "uint256",
          "name": "_decimals",
          "type": "uint256"
        },
        {
          "internalType": "uint256",
          "name": "_totalSupply",
          "type": "uint256"
        }
      ],
      "stateMutability": "nonpayable",
      "type": "constructor"
    },
    {
      "inputs": [],
      "name": "admin",
      "outputs": [
        {
          "internalType": "address",
          "name": "",
          "type": "address"
        }
      ],
      "stateMutability": "view",
      "type": "function"
    },
    {
      "inputs": [],
      "name": "availableTokens",
      "outputs": [
        {
          "internalType": "uint256",
          "name": "",
          "type": "uint256"
        }
      ],
      "stateMutability": "view",
      "type": "function"
    },
    {
      "inputs": [],
      "name": "buy",
      "outputs": [],
      "stateMutability": "payable",
      "type": "function"
    },
    {
      "inputs": [],
      "name": "checkWhiteList",
      "outputs": [
        {
          "internalType": "bool",
          "name": "",
          "type": "bool"
        }
      ],
      "stateMutability": "view",
      "type": "function"
    },
    {
      "inputs": [],
      "name": "end",
      "outputs": [
        {
          "internalType": "uint256",
          "name": "",
          "type": "uint256"
        }
      ],
      "stateMutability": "view",
      "type": "function"
    },
    {
      "inputs": [],
      "name": "maxPurchase",
      "outputs": [
        {
          "internalType": "uint256",
          "name": "",
          "type": "uint256"
        }
      ],
      "stateMutability": "view",
      "type": "function"
    },
    {
      "inputs": [],
      "name": "minPurchase",
      "outputs": [
        {
          "internalType": "uint256",
          "name": "",
          "type": "uint256"
        }
      ],
      "stateMutability": "view",
      "type": "function"
    },
    {
      "inputs": [],
      "name": "price",
      "outputs": [
        {
          "internalType": "uint256",
          "name": "",
          "type": "uint256"
        }
      ],
      "stateMutability": "view",
      "type": "function"
    },
    {
      "inputs": [],
      "name": "release",
      "outputs": [],
      "stateMutability": "nonpayable",
      "type": "function"
    },
    {
      "inputs": [],
      "name": "released",
      "outputs": [
        {
          "internalType": "bool",
          "name": "",
          "type": "bool"
        }
      ],
      "stateMutability": "view",
      "type": "function"
    },
    {
      "inputs": [
        {
          "internalType": "uint256",
          "name": "",
          "type": "uint256"
        }
      ],
      "name": "sales",
      "outputs": [
        {
          "internalType": "address",
          "name": "investor",
          "type": "address"
        },
        {
          "internalType": "uint256",
          "name": "quantity",
          "type": "uint256"
        }
      ],
      "stateMutability": "view",
      "type": "function"
    },
    {
      "inputs": [
        {
          "internalType": "uint256",
          "name": "duration",
          "type": "uint256"
        },
        {
          "internalType": "uint256",
          "name": "_price",
          "type": "uint256"
        },
        {
          "internalType": "uint256",
          "name": "_avaliableTokens",
          "type": "uint256"
        },
        {
          "internalType": "uint256",
          "name": "_minPurchase",
          "type": "uint256"
        },
        {
          "internalType": "uint256",
          "name": "_maxPurchase",
          "type": "uint256"
        }
      ],
      "name": "start",
      "outputs": [],
      "stateMutability": "nonpayable",
      "type": "function"
    },
    {
      "inputs": [],
      "name": "token",
      "outputs": [
        {
          "internalType": "address",
          "name": "",
          "type": "address"
        }
      ],
      "stateMutability": "view",
      "type": "function"
    },
    {
      "inputs": [
        {
          "internalType": "address",
          "name": "investor",
          "type": "address"
        }
      ],
      "name": "whiteList",
      "outputs": [],
      "stateMutability": "nonpayable",
      "type": "function"
    },
    {
      "inputs": [
        {
          "internalType": "address payable",
          "name": "to",
          "type": "address"
        },
        {
          "internalType": "uint256",
          "name": "amount",
          "type": "uint256"
        }
      ],
      "name": "withdraw",
      "outputs": [],
      "stateMutability": "nonpayable",
      "type": "function"
    }
  ],
  "bytecode": "0x60806040526000600960006101000a81548160ff0219169083151502179055503480156200002c57600080fd5b5060405162003400380380620034008339818101604052810190620000529190620002f8565b8383838360405162000064906200011c565b62000073949392919062000416565b604051809103906000f08015801562000090573d6000803e3d6000fd5b50600260006101000a81548173ffffffffffffffffffffffffffffffffffffffff021916908373ffffffffffffffffffffffffffffffffffffffff16021790555033600360006101000a81548173ffffffffffffffffffffffffffffffffffffffff021916908373ffffffffffffffffffffffffffffffffffffffff1602179055505050505062000471565b6115878062001e7983390190565b6000604051905090565b600080fd5b600080fd5b600080fd5b600080fd5b6000601f19601f8301169050919050565b7f4e487b7100000000000000000000000000000000000000000000000000000000600052604160045260246000fd5b620001938262000148565b810181811067ffffffffffffffff82111715620001b557620001b462000159565b5b80604052505050565b6000620001ca6200012a565b9050620001d8828262000188565b919050565b600067ffffffffffffffff821115620001fb57620001fa62000159565b5b620002068262000148565b9050602081019050919050565b60005b838110156200023357808201518184015260208101905062000216565b60008484015250505050565b6000620002566200025084620001dd565b620001be565b90508281526020810184848401111562000275576200027462000143565b5b6200028284828562000213565b509392505050565b600082601f830112620002a257620002a16200013e565b5b8151620002b48482602086016200023f565b91505092915050565b6000819050919050565b620002d281620002bd565b8114620002de57600080fd5b50565b600081519050620002f281620002c7565b92915050565b6000806000806080858703121562000315576200031462000134565b5b600085015167ffffffffffffffff81111562000336576200033562000139565b5b62000344878288016200028a565b945050602085015167ffffffffffffffff81111562000368576200036762000139565b5b62000376878288016200028a565b93505060406200038987828801620002e1565b92505060606200039c87828801620002e1565b91505092959194509250565b600081519050919050565b600082825260208201905092915050565b6000620003d182620003a8565b620003dd8185620003b3565b9350620003ef81856020860162000213565b620003fa8162000148565b840191505092915050565b6200041081620002bd565b82525050565b60006080820190508181036000830152620004328187620003c4565b90508181036020830152620004488186620003c4565b905062000459604083018562000405565b62000468606083018462000405565b95945050505050565b6119f880620004816000396000f3fe6080604052600436106100e85760003560e01c8063a035b1fe1161008a578063efbe1c1c11610059578063efbe1c1c146102a0578063f3fef3a3146102cb578063f851a440146102f4578063fc0c546a1461031f576100e8565b8063a035b1fe14610204578063a6f2ae3a1461022f578063b5f522f714610239578063d607b55b14610277576100e8565b806369bb4dc2116100c657806369bb4dc21461016c57806386d1a69f1461019757806396132521146101ae578063977b055b146101d9576100e8565b806333b5b62e146100ed578063372c12b1146101185780634ee27f6614610141575b600080fd5b3480156100f957600080fd5b5061010261034a565b60405161010f9190610eda565b60405180910390f35b34801561012457600080fd5b5061013f600480360381019061013a9190610f58565b610350565b005b34801561014d57600080fd5b5061015661043a565b6040516101639190610fa0565b60405180910390f35b34801561017857600080fd5b5061018161048e565b60405161018e9190610eda565b60405180910390f35b3480156101a357600080fd5b506101ac610494565b005b3480156101ba57600080fd5b506101c361070f565b6040516101d09190610fa0565b60405180910390f35b3480156101e557600080fd5b506101ee610722565b6040516101fb9190610eda565b60405180910390f35b34801561021057600080fd5b50610219610728565b6040516102269190610eda565b60405180910390f35b61023761072e565b005b34801561024557600080fd5b50610260600480360381019061025b9190610fe7565b6109c7565b60405161026e929190611023565b60405180910390f35b34801561028357600080fd5b5061029e6004803603810190610299919061104c565b610a1b565b005b3480156102ac57600080fd5b506102b5610cdf565b6040516102c29190610eda565b60405180910390f35b3480156102d757600080fd5b506102f260048036038101906102ed9190611105565b610ce5565b005b34801561030057600080fd5b50610309610e75565b6040516103169190611145565b60405180910390f35b34801561032b57600080fd5b50610334610e9b565b6040516103419190611145565b60405180910390f35b60075481565b600360009054906101000a900473ffffffffffffffffffffffffffffffffffffffff1673ffffffffffffffffffffffffffffffffffffffff163373ffffffffffffffffffffffffffffffffffffffff16146103e0576040517f08c379a00000000000000000000000000000000000000000000000000000000081526004016103d7906111bd565b60405180910390fd5b60018060008373ffffffffffffffffffffffffffffffffffffffff1673ffffffffffffffffffffffffffffffffffffffff16815260200190815260200160002060006101000a81548160ff02191690831515021790555050565b6000600160003373ffffffffffffffffffffffffffffffffffffffff1673ffffffffffffffffffffffffffffffffffffffff16815260200190815260200160002060009054906101000a900460ff16905090565b60065481565b600360009054906101000a900473ffffffffffffffffffffffffffffffffffffffff1673ffffffffffffffffffffffffffffffffffffffff163373ffffffffffffffffffffffffffffffffffffffff1614610524576040517f08c379a000000000000000000000000000000000000000000000000000000000815260040161051b906111bd565b60405180910390fd5b6000600454118015610544575060045442118061054357506000600654145b5b610583576040517f08c379a000000000000000000000000000000000000000000000000000000000815260040161057a90611229565b60405180910390fd5b60001515600960009054906101000a900460ff161515146105d9576040517f08c379a00000000000000000000000000000000000000000000000000000000081526004016105d0906112bb565b60405180910390fd5b6000600260009054906101000a900473ffffffffffffffffffffffffffffffffffffffff16905060005b6000805490508110156106f0576000808281548110610625576106246112db565b5b906000526020600020906002020190508273ffffffffffffffffffffffffffffffffffffffff1663a9059cbb8260000160009054906101000a900473ffffffffffffffffffffffffffffffffffffffff1683600101546040518363ffffffff1660e01b8152600401610698929190611023565b6020604051808303816000875af11580156106b7573d6000803e3d6000fd5b505050506040513d601f19601f820116820180604052508101906106db9190611336565b505080806106e890611392565b915050610603565b506001600960006101000a81548160ff02191690831515021790555050565b600960009054906101000a900460ff1681565b60085481565b60055481565b60011515600160003373ffffffffffffffffffffffffffffffffffffffff1673ffffffffffffffffffffffffffffffffffffffff16815260200190815260200160002060009054906101000a900460ff161515146107c1576040517f08c379a00000000000000000000000000000000000000000000000000000000081526004016107b890611426565b60405180910390fd5b60006004541180156107d4575060045442105b80156107e257506000600654115b610821576040517f08c379a000000000000000000000000000000000000000000000000000000000815260040161081890611492565b60405180910390fd5b60006005543461083191906114e1565b14610871576040517f08c379a00000000000000000000000000000000000000000000000000000000081526004016108689061155e565b60405180910390fd5b600754341015801561088557506008543411155b6108c4576040517f08c379a00000000000000000000000000000000000000000000000000000000081526004016108bb906115f0565b60405180910390fd5b6000346005546108d49190611610565b905060065481111561091b576040517f08c379a00000000000000000000000000000000000000000000000000000000081526004016109129061169e565b60405180910390fd5b600060405180604001604052803373ffffffffffffffffffffffffffffffffffffffff16815260200183815250908060018154018082558091505060019003906000526020600020906002020160009091909190915060008201518160000160006101000a81548173ffffffffffffffffffffffffffffffffffffffff021916908373ffffffffffffffffffffffffffffffffffffffff16021790555060208201518160010155505050565b600081815481106109d757600080fd5b90600052602060002090600202016000915090508060000160009054906101000a900473ffffffffffffffffffffffffffffffffffffffff16908060010154905082565b600360009054906101000a900473ffffffffffffffffffffffffffffffffffffffff1673ffffffffffffffffffffffffffffffffffffffff163373ffffffffffffffffffffffffffffffffffffffff1614610aab576040517f08c379a0000000000000000000000000000000000000000000000000000000008152600401610aa2906111bd565b60405180910390fd5b600060045414610af0576040517f08c379a0000000000000000000000000000000000000000000000000000000008152600401610ae79061170a565b60405180910390fd5b60008511610b33576040517f08c379a0000000000000000000000000000000000000000000000000000000008152600401610b2a9061179c565b60405180910390fd5b6000600260009054906101000a900473ffffffffffffffffffffffffffffffffffffffff1673ffffffffffffffffffffffffffffffffffffffff166318160ddd6040518163ffffffff1660e01b8152600401602060405180830381865afa158015610ba2573d6000803e3d6000fd5b505050506040513d601f19601f82011682018060405250810190610bc691906117d1565b9050600084118015610bd85750808411155b610c17576040517f08c379a0000000000000000000000000000000000000000000000000000000008152600401610c0e90611870565b60405180910390fd5b60008311610c5a576040517f08c379a0000000000000000000000000000000000000000000000000000000008152600401610c51906118dc565b60405180910390fd5b600082118015610c6a5750838211155b610ca9576040517f08c379a0000000000000000000000000000000000000000000000000000000008152600401610ca09061196e565b60405180910390fd5b4286610cb5919061198e565b60048190555084600581905550836006819055508260078190555081600881905550505050505050565b60045481565b600360009054906101000a900473ffffffffffffffffffffffffffffffffffffffff1673ffffffffffffffffffffffffffffffffffffffff163373ffffffffffffffffffffffffffffffffffffffff1614610d75576040517f08c379a0000000000000000000000000000000000000000000000000000000008152600401610d6c906111bd565b60405180910390fd5b6000600454118015610d955750600454421180610d9457506000600654145b5b610dd4576040517f08c379a0000000000000000000000000000000000000000000000000000000008152600401610dcb90611229565b60405180910390fd5b60001515600960009054906101000a900460ff16151514610e2a576040517f08c379a0000000000000000000000000000000000000000000000000000000008152600401610e21906112bb565b60405180910390fd5b8173ffffffffffffffffffffffffffffffffffffffff166108fc829081150290604051600060405180830381858888f19350505050158015610e70573d6000803e3d6000fd5b505050565b600360009054906101000a900473ffffffffffffffffffffffffffffffffffffffff1681565b600260009054906101000a900473ffffffffffffffffffffffffffffffffffffffff1681565b6000819050919050565b610ed481610ec1565b82525050565b6000602082019050610eef6000830184610ecb565b92915050565b600080fd5b600073ffffffffffffffffffffffffffffffffffffffff82169050919050565b6000610f2582610efa565b9050919050565b610f3581610f1a565b8114610f4057600080fd5b50565b600081359050610f5281610f2c565b92915050565b600060208284031215610f6e57610f6d610ef5565b5b6000610f7c84828501610f43565b91505092915050565b60008115159050919050565b610f9a81610f85565b82525050565b6000602082019050610fb56000830184610f91565b92915050565b610fc481610ec1565b8114610fcf57600080fd5b50565b600081359050610fe181610fbb565b92915050565b600060208284031215610ffd57610ffc610ef5565b5b600061100b84828501610fd2565b91505092915050565b61101d81610f1a565b82525050565b60006040820190506110386000830185611014565b6110456020830184610ecb565b9392505050565b600080600080600060a0868803121561106857611067610ef5565b5b600061107688828901610fd2565b955050602061108788828901610fd2565b945050604061109888828901610fd2565b93505060606110a988828901610fd2565b92505060806110ba88828901610fd2565b9150509295509295909350565b60006110d282610efa565b9050919050565b6110e2816110c7565b81146110ed57600080fd5b50565b6000813590506110ff816110d9565b92915050565b6000806040838503121561111c5761111b610ef5565b5b600061112a858286016110f0565b925050602061113b85828601610fd2565b9150509250929050565b600060208201905061115a6000830184611014565b92915050565b600082825260208201905092915050565b7f4f6e6c792041646d696e00000000000000000000000000000000000000000000600082015250565b60006111a7600a83611160565b91506111b282611171565b602082019050919050565b600060208201905081810360008301526111d68161119a565b9050919050565b7f49434f2068617665206d75737420656e64656400000000000000000000000000600082015250565b6000611213601383611160565b915061121e826111dd565b602082019050919050565b6000602082019050818103600083015261124281611206565b9050919050565b7f546f6b656e73206d757374204e6f742068617665206265656e2072656c65617360008201527f6564000000000000000000000000000000000000000000000000000000000000602082015250565b60006112a5602283611160565b91506112b082611249565b604082019050919050565b600060208201905081810360008301526112d481611298565b9050919050565b7f4e487b7100000000000000000000000000000000000000000000000000000000600052603260045260246000fd5b61131381610f85565b811461131e57600080fd5b50565b6000815190506113308161130a565b92915050565b60006020828403121561134c5761134b610ef5565b5b600061135a84828501611321565b91505092915050565b7f4e487b7100000000000000000000000000000000000000000000000000000000600052601160045260246000fd5b600061139d82610ec1565b91507fffffffffffffffffffffffffffffffffffffffffffffffffffffffffffffffff82036113cf576113ce611363565b5b600182019050919050565b7f4f6e6c7920696e766573746f7273000000000000000000000000000000000000600082015250565b6000611410600e83611160565b915061141b826113da565b602082019050919050565b6000602082019050818103600083015261143f81611403565b9050919050565b7f49434f206d757374206265206163746976650000000000000000000000000000600082015250565b600061147c601283611160565b915061148782611446565b602082019050919050565b600060208201905081810360008301526114ab8161146f565b9050919050565b7f4e487b7100000000000000000000000000000000000000000000000000000000600052601260045260246000fd5b60006114ec82610ec1565b91506114f783610ec1565b925082611507576115066114b2565b5b828206905092915050565b7f6861766520746f2073656e642061206d756c7469706c65206f66207072696365600082015250565b6000611548602083611160565b915061155382611512565b602082019050919050565b600060208201905081810360008301526115778161153b565b9050919050565b7f53686f756c64206265206265747765656e206d617820616e64206d696e20707560008201527f7263686173650000000000000000000000000000000000000000000000000000602082015250565b60006115da602683611160565b91506115e58261157e565b604082019050919050565b60006020820190508181036000830152611609816115cd565b9050919050565b600061161b82610ec1565b915061162683610ec1565b925082820261163481610ec1565b9150828204841483151761164b5761164a611363565b5b5092915050565b7f4e6f7420656e6f75676820746f6b656e73206c65667420666f722073616c6500600082015250565b6000611688601f83611160565b915061169382611652565b602082019050919050565b600060208201905081810360008301526116b78161167b565b9050919050565b7f49434f2073686f756c64206e6f74206265206163746976650000000000000000600082015250565b60006116f4601883611160565b91506116ff826116be565b602082019050919050565b60006020820190508181036000830152611723816116e7565b9050919050565b7f4475726174696f6e2073686f756c64206265207375706572696f72207468616e60008201527f2030000000000000000000000000000000000000000000000000000000000000602082015250565b6000611786602283611160565b91506117918261172a565b604082019050919050565b600060208201905081810360008301526117b581611779565b9050919050565b6000815190506117cb81610fbb565b92915050565b6000602082840312156117e7576117e6610ef5565b5b60006117f5848285016117bc565b91505092915050565b7f546f74616c20737570706c792073686f756c64206265203e203020616e64203c60008201527f3d20746f74616c737570706c7900000000000000000000000000000000000000602082015250565b600061185a602d83611160565b9150611865826117fe565b604082019050919050565b600060208201905081810360008301526118898161184d565b9050919050565b7f6d696e50757263686173652073686f756c64206265203e203000000000000000600082015250565b60006118c6601983611160565b91506118d182611890565b602082019050919050565b600060208201905081810360008301526118f5816118b9565b9050919050565b7f6d617850757263686173652073686f756c64206265203e203020616e64203c3d60008201527f205f6176616c6961626c65546f6b656e73000000000000000000000000000000602082015250565b6000611958603183611160565b9150611963826118fc565b604082019050919050565b600060208201905081810360008301526119878161194b565b9050919050565b600061199982610ec1565b91506119a483610ec1565b92508282019050808211156119bc576119bb611363565b5b9291505056fea26469706673582212204b287e82de7b97f8897c85c07a301b44771285abfa2401880c653b5029cdcd1964736f6c6343000811003360806040523480156200001157600080fd5b506040516200158738038062001587833981810160405281019062000037919062000285565b836000908162000048919062000576565b5082600190816200005a919062000576565b50816002819055508060038190555080600460003373ffffffffffffffffffffffffffffffffffffffff1673ffffffffffffffffffffffffffffffffffffffff16815260200190815260200160002081905550505050506200065d565b6000604051905090565b600080fd5b600080fd5b600080fd5b600080fd5b6000601f19601f8301169050919050565b7f4e487b7100000000000000000000000000000000000000000000000000000000600052604160045260246000fd5b6200012082620000d5565b810181811067ffffffffffffffff82111715620001425762000141620000e6565b5b80604052505050565b600062000157620000b7565b905062000165828262000115565b919050565b600067ffffffffffffffff821115620001885762000187620000e6565b5b6200019382620000d5565b9050602081019050919050565b60005b83811015620001c0578082015181840152602081019050620001a3565b60008484015250505050565b6000620001e3620001dd846200016a565b6200014b565b905082815260208101848484011115620002025762000201620000d0565b5b6200020f848285620001a0565b509392505050565b600082601f8301126200022f576200022e620000cb565b5b815162000241848260208601620001cc565b91505092915050565b6000819050919050565b6200025f816200024a565b81146200026b57600080fd5b50565b6000815190506200027f8162000254565b92915050565b60008060008060808587031215620002a257620002a1620000c1565b5b600085015167ffffffffffffffff811115620002c357620002c2620000c6565b5b620002d18782880162000217565b945050602085015167ffffffffffffffff811115620002f557620002f4620000c6565b5b620003038782880162000217565b935050604062000316878288016200026e565b925050606062000329878288016200026e565b91505092959194509250565b600081519050919050565b7f4e487b7100000000000000000000000000000000000000000000000000000000600052602260045260246000fd5b600060028204905060018216806200038857607f821691505b6020821081036200039e576200039d62000340565b5b50919050565b60008190508160005260206000209050919050565b60006020601f8301049050919050565b600082821b905092915050565b600060088302620004087fffffffffffffffffffffffffffffffffffffffffffffffffffffffffffffffff82620003c9565b620004148683620003c9565b95508019841693508086168417925050509392505050565b6000819050919050565b600062000457620004516200044b846200024a565b6200042c565b6200024a565b9050919050565b6000819050919050565b620004738362000436565b6200048b62000482826200045e565b848454620003d6565b825550505050565b600090565b620004a262000493565b620004af81848462000468565b505050565b5b81811015620004d757620004cb60008262000498565b600181019050620004b5565b5050565b601f8211156200052657620004f081620003a4565b620004fb84620003b9565b810160208510156200050b578190505b620005236200051a85620003b9565b830182620004b4565b50505b505050565b600082821c905092915050565b60006200054b600019846008026200052b565b1980831691505092915050565b600062000566838362000538565b9150826002028217905092915050565b620005818262000335565b67ffffffffffffffff8111156200059d576200059c620000e6565b5b620005a982546200036f565b620005b6828285620004db565b600060209050601f831160018114620005ee5760008415620005d9578287015190505b620005e5858262000558565b86555062000655565b601f198416620005fe86620003a4565b60005b82811015620006285784890151825560018201915060208501945060208101905062000601565b8683101562000648578489015162000644601f89168262000538565b8355505b6001600288020188555050505b505050505050565b610f1a806200066d6000396000f3fe608060405234801561001057600080fd5b50600436106100a95760003560e01c8063313ce56711610071578063313ce5671461017a5780635c6581651461019857806370a08231146101c857806395d89b41146101f8578063a9059cbb14610216578063dd62ed3e14610246576100a9565b806306fdde03146100ae578063095ea7b3146100cc57806318160ddd146100fc57806323b872dd1461011a57806327e235e31461014a575b600080fd5b6100b6610276565b6040516100c39190610afa565b60405180910390f35b6100e660048036038101906100e19190610bb5565b610304565b6040516100f39190610c10565b60405180910390f35b610104610464565b6040516101119190610c3a565b60405180910390f35b610134600480360381019061012f9190610c55565b61046a565b6040516101419190610c10565b60405180910390f35b610164600480360381019061015f9190610ca8565b61072a565b6040516101719190610c3a565b60405180910390f35b610182610742565b60405161018f9190610c3a565b60405180910390f35b6101b260048036038101906101ad9190610cd5565b610748565b6040516101bf9190610c3a565b60405180910390f35b6101e260048036038101906101dd9190610ca8565b61076d565b6040516101ef9190610c3a565b60405180910390f35b6102006107b6565b60405161020d9190610afa565b60405180910390f35b610230600480360381019061022b9190610bb5565b610844565b60405161023d9190610c10565b60405180910390f35b610260600480360381019061025b9190610cd5565b6109e3565b60405161026d9190610c3a565b60405180910390f35b6000805461028390610d44565b80601f01602080910402602001604051908101604052809291908181526020018280546102af90610d44565b80156102fc5780601f106102d1576101008083540402835291602001916102fc565b820191906000526020600020905b8154815290600101906020018083116102df57829003601f168201915b505050505081565b60003373ffffffffffffffffffffffffffffffffffffffff168373ffffffffffffffffffffffffffffffffffffffff1603610374576040517f08c379a000000000000000000000000000000000000000000000000000000000815260040161036b90610dc1565b60405180910390fd5b81600560003373ffffffffffffffffffffffffffffffffffffffff1673ffffffffffffffffffffffffffffffffffffffff16815260200190815260200160002060008573ffffffffffffffffffffffffffffffffffffffff1673ffffffffffffffffffffffffffffffffffffffff168152602001908152602001600020819055508273ffffffffffffffffffffffffffffffffffffffff163373ffffffffffffffffffffffffffffffffffffffff167f8c5be1e5ebec7d5bd14f71427d1e84f3dd0314c0f7b2291e5b200ac8c7c3b925846040516104529190610c3a565b60405180910390a36001905092915050565b60035481565b600080600560008673ffffffffffffffffffffffffffffffffffffffff1673ffffffffffffffffffffffffffffffffffffffff16815260200190815260200160002060003373ffffffffffffffffffffffffffffffffffffffff1673ffffffffffffffffffffffffffffffffffffffff16815260200190815260200160002054905082600460008773ffffffffffffffffffffffffffffffffffffffff1673ffffffffffffffffffffffffffffffffffffffff168152602001908152602001600020541015801561053b5750828110155b61057a576040517f08c379a000000000000000000000000000000000000000000000000000000000815260040161057190610e2d565b60405180910390fd5b82600560008773ffffffffffffffffffffffffffffffffffffffff1673ffffffffffffffffffffffffffffffffffffffff16815260200190815260200160002060003373ffffffffffffffffffffffffffffffffffffffff1673ffffffffffffffffffffffffffffffffffffffff16815260200190815260200160002060008282546106069190610e7c565b9250508190555082600460008773ffffffffffffffffffffffffffffffffffffffff1673ffffffffffffffffffffffffffffffffffffffff168152602001908152602001600020600082825461065c9190610e7c565b9250508190555082600460008673ffffffffffffffffffffffffffffffffffffffff1673ffffffffffffffffffffffffffffffffffffffff16815260200190815260200160002060008282546106b29190610eb0565b925050819055508373ffffffffffffffffffffffffffffffffffffffff163373ffffffffffffffffffffffffffffffffffffffff167fddf252ad1be2c89b69c2b068fc378daa952ba7f163c4a11628f55a4df523b3ef856040516107169190610c3a565b60405180910390a360019150509392505050565b60046020528060005260406000206000915090505481565b60025481565b6005602052816000526040600020602052806000526040600020600091509150505481565b6000600460008373ffffffffffffffffffffffffffffffffffffffff1673ffffffffffffffffffffffffffffffffffffffff168152602001908152602001600020549050919050565b600180546107c390610d44565b80601f01602080910402602001604051908101604052809291908181526020018280546107ef90610d44565b801561083c5780601f106108115761010080835404028352916020019161083c565b820191906000526020600020905b81548152906001019060200180831161081f57829003601f168201915b505050505081565b600081600460003373ffffffffffffffffffffffffffffffffffffffff1673ffffffffffffffffffffffffffffffffffffffff1681526020019081526020016000205410156108c8576040517f08c379a00000000000000000000000000000000000000000000000000000000081526004016108bf90610e2d565b60405180910390fd5b81600460003373ffffffffffffffffffffffffffffffffffffffff1673ffffffffffffffffffffffffffffffffffffffff16815260200190815260200160002060008282546109179190610e7c565b9250508190555081600460008573ffffffffffffffffffffffffffffffffffffffff1673ffffffffffffffffffffffffffffffffffffffff168152602001908152602001600020600082825461096d9190610eb0565b925050819055508273ffffffffffffffffffffffffffffffffffffffff163373ffffffffffffffffffffffffffffffffffffffff167fddf252ad1be2c89b69c2b068fc378daa952ba7f163c4a11628f55a4df523b3ef846040516109d19190610c3a565b60405180910390a36001905092915050565b6000600560008473ffffffffffffffffffffffffffffffffffffffff1673ffffffffffffffffffffffffffffffffffffffff16815260200190815260200160002060008373ffffffffffffffffffffffffffffffffffffffff1673ffffffffffffffffffffffffffffffffffffffff16815260200190815260200160002054905092915050565b600081519050919050565b600082825260208201905092915050565b60005b83811015610aa4578082015181840152602081019050610a89565b60008484015250505050565b6000601f19601f8301169050919050565b6000610acc82610a6a565b610ad68185610a75565b9350610ae6818560208601610a86565b610aef81610ab0565b840191505092915050565b60006020820190508181036000830152610b148184610ac1565b905092915050565b600080fd5b600073ffffffffffffffffffffffffffffffffffffffff82169050919050565b6000610b4c82610b21565b9050919050565b610b5c81610b41565b8114610b6757600080fd5b50565b600081359050610b7981610b53565b92915050565b6000819050919050565b610b9281610b7f565b8114610b9d57600080fd5b50565b600081359050610baf81610b89565b92915050565b60008060408385031215610bcc57610bcb610b1c565b5b6000610bda85828601610b6a565b9250506020610beb85828601610ba0565b9150509250929050565b60008115159050919050565b610c0a81610bf5565b82525050565b6000602082019050610c256000830184610c01565b92915050565b610c3481610b7f565b82525050565b6000602082019050610c4f6000830184610c2b565b92915050565b600080600060608486031215610c6e57610c6d610b1c565b5b6000610c7c86828701610b6a565b9350506020610c8d86828701610b6a565b9250506040610c9e86828701610ba0565b9150509250925092565b600060208284031215610cbe57610cbd610b1c565b5b6000610ccc84828501610b6a565b91505092915050565b60008060408385031215610cec57610ceb610b1c565b5b6000610cfa85828601610b6a565b9250506020610d0b85828601610b6a565b9150509250929050565b7f4e487b7100000000000000000000000000000000000000000000000000000000600052602260045260246000fd5b60006002820490506001821680610d5c57607f821691505b602082108103610d6f57610d6e610d15565b5b50919050565b7f497473206e6f206d616b652073656e7365000000000000000000000000000000600082015250565b6000610dab601183610a75565b9150610db682610d75565b602082019050919050565b60006020820190508181036000830152610dda81610d9e565b9050919050565b7f496e73756666696369656e742076616c75650000000000000000000000000000600082015250565b6000610e17601283610a75565b9150610e2282610de1565b602082019050919050565b60006020820190508181036000830152610e4681610e0a565b9050919050565b7f4e487b7100000000000000000000000000000000000000000000000000000000600052601160045260246000fd5b6000610e8782610b7f565b9150610e9283610b7f565b9250828203905081811115610eaa57610ea9610e4d565b5b92915050565b6000610ebb82610b7f565b9150610ec683610b7f565b9250828201905080821115610ede57610edd610e4d565b5b9291505056fea2646970667358221220fcd42315595ea2b9d5d1e0f57b24965959cecc3450b196ac89c41ed57cb42a5964736f6c63430008110033",
  "linkReferences": {},
  "deployedLinkReferences": {}
}